:100000000C9462000C940D030C94E6020C947E0890
:100010000C948A000C948A000C948A000C948A0038
:100020000C948A000C948A000C948A000C948A0028
:100030000C948A000C948A000C948A000C948A0018
:100040000C949C020C948A000C94A8090C948209CC
:100050000C948A000C948A000C948A000C948A00F8
:100060000C948A000C948A000000000024002700F1
:100070002A0000000000250028002B0000000000DE
:1000800023002600290004040404040404040202DA
:100090000202020203030303030301020408102007
:1000A0004080010204081020010204081020000012
:1000B0000008000201000003040700000000000027
:1000C0000000130F11241FBECFEFD8E0DEBFCDBF5D
:1000D00011E0A0E0B1E0E0E2F7E202C005900D928D
:1000E000A23AB107D9F724E0A2EAB1E001C01D921B
:1000F000AB30B207E1F710E0C2E6D0E004C02197D0
:10010000FE010E948313C136D107C9F70E94980AE5
:100110000C948E130C940000FC01918D828D981B21
:10012000892F90E0089580E090E0892B29F00E94CB
:100130000F0981110C94000008953FB7F894809145
:10014000D3019091D401A091D501B091D60126B5EB
:10015000A89B05C02F3F19F00196A11DB11D3FBFFF
:10016000BA2FA92F982F8827820F911DA11DB11D8D
:10017000BC01CD0142E0660F771F881F991F4A9589
:10018000D1F7089508950F931F93CF93DF93809134
:10019000ED018A3008F042C0C091ED01D0E00E942C
:1001A0009D000091A2011091A3012091A401309122
:1001B000A501DC01CB01801B910BA20BB30BCC0F73
:1001C000DD1FCC0FDD1FCA55DE4F88839983AA83BC
:1001D000BB83E091ED0184E0E89FF0011124EA5532
:1001E000FE4F40815181628173818091A201909183
:1001F000A301A091A401B091A501840F951FA61F92
:10020000B71F8093A2019093A301A093A401B09380
:10021000A5018091ED018F5F8093ED01DF91CF917A
:100220001F910F9108950F931F93CF93DF93EC01CC
:100230008B01FB0160810E943A10F8016181CE01BF
:1002400001960E943A1082E090E0DF91CF911F91D9
:100250000F910895FC01848DDF01A80FB11DA35EED
:10026000BE4F2C91848D90E001968F739927848FD7
:10027000A689B7892C93A089B1898C9180648C93CD
:10028000938D848D981306C00288F389E02D8081B8
:100290008F7D80830895833081F028F4813099F038
:1002A0008230A1F008958730A9F08830B9F0843009
:1002B000D1F4809180008F7D03C0809180008F7782
:1002C00080938000089584B58F7702C084B58F7DB8
:1002D00084BD08958091B0008F7703C08091B000F5
:1002E0008F7D8093B00008951F93CF93DF93282FC5
:1002F00030E0F901E255FF4F8491F901E656FF4FD6
:10030000D491F901EA57FF4FC491CC23C9F0162FBD
:1003100081110E944B01EC2FF0E0EE0FFF1FEE5811
:10032000FF4FA591B4918FB7F894111105C09C911E
:10033000ED2FE095E92302C0EC91ED2BEC938FBFFC
:10034000DF91CF911F910895CF93DF9390E0FC014F
:10035000E656FF4F2491FC01EA57FF4F8491882312
:1003600061F190E0880F991FFC01E859FF4FC5919A
:10037000D491FC01EE58FF4FA591B491611109C0D1
:100380009FB7F8948881209582238883EC912E234F
:100390000BC0623061F49FB7F8943881822F80954A
:1003A00083238883EC912E2B2C939FBF06C08FB79D
:1003B000F894E8812E2B28838FBFDF91CF91089589
:1003C0001F93CF93DF93182FEB0161E00E94A401EC
:1003D000209711F460E004C0CF3FD10539F461E00B
:1003E000812FDF91CF911F910C947401E12FF0E0E8
:1003F000E255FF4FE491E330F9F048F4E130B9F011
:10040000E230A1F584B5806284BDC8BD34C0E73058
:10041000E9F0E83019F1E43049F58091800080621C
:1004200080938000D0938B00C0938A0024C084B551
:10043000806884BDC7BD1FC08091800080688093A4
:100440008000D0938900C093880015C08091B000CF
:1004500080688093B000C093B3000DC08091B0005D
:1004600080628093B000C093B40005C0C038D1054D
:100470000CF0B5CFAFCFDF91CF911F9108958E30A3
:1004800008F08E508770806480937C0080917A00A1
:10049000806480937A0080917A0086FDFCCF809101
:1004A00078002091790090E0922B08958F929F928E
:1004B000AF92BF92CF92DF92EF92FF926B017C01DD
:1004C0000E949D004B015C01C114D104E104F104C0
:1004D000F1F00E949D00DC01CB0188199909AA095D
:1004E000BB09883E9340A105B10570F321E0C21A13
:1004F000D108E108F10888EE880E83E0981EA11C5F
:10050000B11CC114D104E104F10419F7DDCFFF904F
:10051000EF90DF90CF90BF90AF909F908F90089515
:100520002FB7F8946091CF017091D0018091D101E3
:100530009091D2012FBF08951F920F920FB60F9284
:1005400011242F933F938F939F93AF93BF938091E9
:10055000CF019091D001A091D101B091D201309101
:10056000CE0123E0230F2D3720F40196A11DB11DEC
:1005700005C026E8230F0296A11DB11D2093CE01D0
:100580008093CF019093D001A093D101B093D20179
:100590008091D3019091D401A091D501B091D60161
:1005A0000196A11DB11D8093D3019093D401A09316
:1005B000D501B093D601BF91AF919F918F913F919B
:1005C0002F910F900FBE0F901F9018951F920F92B2
:1005D0000FB60F9211242F933F934F935F936F9316
:1005E0007F938F939F93AF93BF93EF93FF93E0918C
:1005F0006F01F09170010995FF91EF91BF91AF915B
:100600009F918F917F916F915F914F913F912F912A
:100610000F900FBE0F901F9018951F920F920FB65C
:100620000F9211242F933F934F935F936F937F9378
:100630008F939F93AF93BF93EF93FF93E0916D01DF
:10064000F0916E010995FF91EF91BF91AF919F914C
:100650008F917F916F915F914F913F912F910F906B
:100660000FBE0F901F901895FC018081882329F000
:1006700081E021853285232B09F480E00895CF9312
:10068000DF93DC018C918823F9F077FD07C06F3F81
:10069000710529F024F06FEF70E001C060E017965B
:1006A0006C9317971F96ED91FC915097309739F006
:1006B000ED01862F0995682F70E0888101C070E0F8
:1006C000DF91CF910C94E001DF91CF910895AF922B
:1006D000BF92CF92DF92EF92FF921F93CF93DF935F
:1006E000EC011A8619861B861C861D861E8688814B
:1006F000882309F45DC01F81611709F459C0A62E33
:10070000B12C4531510568F4B501CE01DF91CF918F
:100710001F91FF90EF90DF90CF90BF90AF900C941F
:100720003F035A8749876887BA0180E090E00E94BA
:10073000C5116B017C01812F90E08A199B0997FFFD
:1007400003C0919581959109BC01990F880B990B74
:100750000E94C7119B01AC01C701B6010E941D1187
:100760006B017C0120E030E0A9010E94771220E0BB
:1007700030E040E05FE387FD05C0C701B6010E949D
:10078000AC1004C0C701B6010E94AB100E948F11CB
:100790006431710518F07E836D8304C084E190E0BC
:1007A0009E838D830E94900269837A838B839C83CE
:1007B000DF91CF911F91FF90EF90DF90CF90BF908E
:1007C000AF9008950F931F93CF93DF93EC018B01AC
:1007D000FB0160810E943A10F8016181CE0101960F
:1007E0000E943A1082E090E0DF91CF911F910F912B
:1007F00008950F931F93CF93DF938C01EB010E9419
:1008000032108883C80101960E943210898382E0E9
:1008100090E0DF91CF911F910F9108954F925F92D9
:100820006F927F928F929F92AF92BF92CF92DF9200
:10083000EF92FF920F931F93CF93DF9300D000D0DE
:10084000CDB7DEB78091ED018A3009F062C1812C0D
:10085000912C540101E010E0C12CD12C760120EA4A
:1008600036E841E050E029833A834B835C83412C96
:10087000512C3201F801EE0FFF1FEE0FFF1FEA555A
:10088000FE4F60817181828193814616570668060A
:10089000790610F42B013C0129813A814B815C815E
:1008A000621773078407950720F469837A838B8323
:1008B0009C83C60ED71EE81EF91E9B01AC010E9448
:1008C00044130E94C5119B01AC01C501B4010E94F3
:1008D000AC104B015C010F5F1F4F0A30110551F640
:1008E000C701B60129E030E040E050E00E947A10F4
:1008F00069017A0120E030E040E151E4C501B40132
:100900000E941D114B015C01A7019601C701B601B0
:100910000E9444130E94C5119B01AC01C501B401A2
:100920000E94AB100E94EF124B015C0120E030E00E
:1009300040E85FE30E94181187FF06C0812C912CCC
:10094000E0E8AE2EEFE3BE2E89819A81AB81BC81B7
:10095000481A590A6A0A7B0AC301B2010E94C511EA
:1009600069837A838B839C8320917101309172011A
:100970004091730150917401C501B4010E947C1231
:100980009B01AC0169817A818B819C810E947712E5
:1009900018160CF486C082C0801791078CF06F5F28
:1009A000262F30E0241735070CF0B0C0220F331F7C
:1009B000FD01E20FF31F008111818017910761F79C
:1009C000C301B2012FE730E040E050E00E947A100E
:1009D0002B013C019B01AC01215031094109510916
:1009E000A0E6B9E00E9467102EE730E040E050E05A
:1009F0000E944810DA01C9018C599F4FAF4FBF4F79
:100A00004C01E6E98E0E911CC40164E670E00E9480
:100A100054136C01F3E0CF0ED11C2091780130917A
:100A20007901A12CB12CC7016CE070E00E94541335
:100A30004CE0469FC001479F900D1124B501A401D1
:100A4000800F911F0E94160A80E590E09093D801D4
:100A50008093D7015092DC014092DB010D2C000CF9
:100A6000EE08FF08C092E101D092E201E092E301BA
:100A7000F092E40180917A0190917B01A0917C0138
:100A8000B0917D01C80ED91EEA1EFB1EC092DD0189
:100A9000D092DE01E092DF01F092E0011092ED01D0
:100AA00038C00E942410C701B6012FE730E040E0B3
:100AB00050E00E947A109B01AC012150310941099C
:100AC0005109ACE3B0E00E9467102EE730E040E04F
:100AD00050E00E944810DA01C9018496A11DB11DA1
:100AE0007C016CE070E00E9454132091E70130918A
:100AF000E8014AE1429FD001439FB00D1124AB5F52
:100B0000BE4F4D915C91119761E04ACF06E010E035
:100B100057CF0F900F900F900F90DF91CF911F91B3
:100B20000F91FF90EF90DF90CF90BF90AF909F908C
:100B30008F907F906F905F904F9008950F931F93C9
:100B4000CF93DF9300D01F92CDB7DEB721E1FC0138
:100B50002E9FC0012F9F900D11248C010B551C4F0F
:100B6000C80149835A836B830E94340349815A81A7
:100B70006B8181110EC0F8018781811160E0C8018D
:100B80000F900F900F90DF91CF911F910F910C94C8
:100B900067030F900F900F90DF91CF911F910F91EE
:100BA0000895CF92DF92EF92FF92CF93DF938091DF
:100BB0007A0190917B01A0917C01B0917D014091DF
:100BC00001015091020160910301709104014817E5
:100BD00059076A077B0708F057C0805F984DAF4FF1
:100BE000BF4F8093010190930201A0930301B09342
:100BF00004018EE480937C0062E070E080E090E08D
:100C00000E94560280917A00806480937A008091DD
:100C10007A0086FDFCCF809178002091790030E049
:100C2000322F2227A901330F660B770B9A01AB01F4
:100C3000282B60E070E381E190E00E944810283B9F
:100C40003B404105510504F5809100018823E1F006
:100C5000C5EAD3E0C12CD12C88ECE82E82E4F82E32
:100C6000CB86DC86ED86FE861A86198660E070E00B
:100C7000CE010E943F03619684E0CB30D80781F714
:100C80001092770110920001DF91CF91FF90EF90C9
:100C9000DF90CF9008950E94D909892B81F464E6F2
:100CA00070E080E090E00E9456020E94D90931E095
:100CB00020E0892B09F430E0832F922F089581E002
:100CC00090E008954F925F926F927F928F929F92E1
:100CD000AF92BF92CF92DF92EF92FF920F931F934A
:100CE000CF93DF93C5EAD3E00DEA13E0412C512CFA
:100CF00088EC682E82E4782E8881882309F486C0E7
:100D000089859A85892B09F481C00E9490022981E6
:100D10003A817B01E21AF30A8D819E81E816F90679
:100D200008F474C0B70180E090E00E94C5114B0147
:100D30005C0169857A8580E090E00E94C5119B0185
:100D4000AC01C501B4010E941D114B015C019B0166
:100D5000AC016B857C858D859E850E94AC106B8770
:100D60007C878D879E8720E030E040E85FE3C50107
:100D7000B4010E94771287FD0DC04B865C866D869C
:100D80007E861A861986F801608170E0CE010E9485
:100D90003F033CC0F8013197C080D12CF80160813D
:100DA00070E06C197D09072E000C880B990B0E94CE
:100DB000C711A50194010E947C124B015C0120E047
:100DC00030E0A9010E94771220E030E040E05FE3CC
:100DD00087FD05C0C501B4010E94AC1004C0C50167
:100DE000B4010E94AB100E948F116C0D7D1DCE01CD
:100DF0000E943F0389859A858E199F099A87898762
:100E00000E94900269837A838B839C8361960F5E34
:100E10001F4FF4E0CB30DF0709F06ECFDF91CF91A9
:100E20001F910F91FF90EF90DF90CF90BF90AF9008
:100E30009F908F907F906F905F904F9008950F9349
:100E40001F93CF93DF938C01EA01209175013091BC
:100E50007601DB010E9468132FEF30E040E050E0A4
:100E60000E94481081E1809FF001819FF00D1124C4
:100E7000AE01622FCF018B559C4FDF91CF911F9117
:100E80000F910C9467030F931F93CF93DF938A0105
:100E9000E901F8949FEF960F9F70692F682B88E403
:100EA00092E00E941909B8016F77772788E492E0F1
:100EB0000E941909BE016F77772788E492E00E94AB
:100EC00019097894DF91CF911F910F910895EF92B6
:100ED000FF920F931F93CF93DF93C8EFD1E005EA02
:100EE00013E08C819D8198012F5E3F4F7901892B02
:100EF00099F14E815F816885798580917A01909121
:100F00007B01A0917C01B0917D0184179507A60714
:100F1000B70710F14A815B81609178017091790186
:100F200020E030E080E990E00E9443071D821C82AF
:100F300080917701813031F441EE50E060E0C801EA
:100F40000E94670380917701823031F441EE50E0D6
:100F500060E0C7010E9467036096870132E0C834F1
:100F6000D30709F0BECFDF91CF911F910F91FF9072
:100F7000EF9008950F931F93CF93DF938091D90142
:100F80009091DA01C091DB01D091DC01C81BD90B33
:100F900009F46CC040917A0150917B0160917C0111
:100FA00070917D010091DD011091DE012091DF0142
:100FB0003091E001041715072607370708F056C0DF
:100FC0000091E1011091E2012091E3013091E401EF
:100FD000400F511F621F731F4093DD015093DE01CC
:100FE0006093DF017093E0011C161D0614F4019656
:100FF00001C001979093DA018093D9012091D90122
:101000003091DA014091D7015091D8016091780177
:101010007091790180EB90E00E944307A091D90183
:10102000B091DA012FEF30E00E9468132FE730E033
:1010300040E050E00E9448101C161D0664F4CA01EE
:10104000B90145E050E085E090E0DF91CF911F913C
:101050000F910C941F0745E050E0622F8AEF93E058
:10106000DF91CF911F910F910C946703DF91CF9186
:101070001F910F910895CF93DF9300D000D0CDB78B
:10108000DEB71A821982BE016F5F7F4F81E090E068
:101090000E9413018FEF90E09A838983BE016F5FF6
:1010A0007F4F83E090E00E94130181E090E09A83FB
:1010B0008983BE016F5F7F4F85E090E00E9413013E
:1010C00083E393E3A3E1B0E489839A83AB83BC8396
:1010D000CE0101960E94FD0982E090E09A83898307
:1010E000BE016F5F7F4F80E090E00E9413010F9080
:1010F0000F900F900F90DF91CF9108951F920F9254
:101100000FB60F9211242F933F934F935F936F93DA
:101110007F938F939F93AF93BF93EF93FF930E941F
:10112000D909892B51F40E9490026093E9017093D0
:10113000EA018093EB019093EC01FF91EF91BF9155
:10114000AF919F918F917F916F915F914F913F915F
:101150002F910F900FBE0F901F901895CF92DF9296
:10116000EF92FF920F931F93CF93DF936C017A015D
:101170008B01C0E0D0E0CE15DF0589F0D8016D917C
:101180008D01D601ED91FC910190F081E02DC60119
:101190000995892B11F47E0102C02196ECCFC7017D
:1011A000DF91CF911F910F91FF90EF90DF90CF9043
:1011B0000895089580E090E00895FC01538D448DDA
:1011C000252F30E0842F90E0821B930B541710F0F2
:1011D000CF96089501970895FC01918D828D9817FF
:1011E00059F0828DDF01A80FB11D5D968C91928D13
:1011F0009F5F928F90E008958FEF9FEF0895FC011D
:10120000918D828D981731F0828DE80FF11D858DBB
:1012100090E008958FEF9FEF08950E94891388E46E
:1012200092E00E948C0021E0892B09F420E0822FBB
:101230000895EF92FF920F931F93CF93DF93EC01EA
:1012400081E0888F9B8D8C8D981305C0E889F98982
:10125000808185FD24C0F62E0B8D10E00F5F1F4F9F
:101260000F731127E02E8C8DE8120CC00FB607FC0F
:10127000FACFE889F989808185FFF5CFCE010E94F8
:101280002A01F1CF8B8DFE01E80FF11DE35EFE4FC9
:10129000F0820B8FEA89FB898081806207C0EE892A
:1012A000FF896083E889F98980818064808381E097
:1012B00090E0DF91CF911F910F91FF90EF900895F3
:1012C000CF93DF93EC01888D8823C9F0EA89FB89ED
:1012D000808185FD05C0A889B9898C9186FD0FC0E4
:1012E0000FB607FCF5CF808185FFF2CFA889B989B9
:1012F0008C9185FFEDCFCE010E942A01E7CFDF91CF
:10130000CF9108951F920F920FB60F9211242F9331
:101310003F934F935F936F937F938F939F93AF937D
:10132000BF93EF93FF9388E492E00E942A01FF911C
:10133000EF91BF91AF919F918F917F916F915F914D
:101340004F913F912F910F900FBE0F901F901895C6
:101350001F920F920FB60F9211242F938F939F938A
:10136000EF93FF93E0915802F09159028081E09150
:101370005E02F0915F0282FD11C090818091610256
:101380008F5F20916202821751F0E0916102F0E0DC
:10139000E85BFD4F958F8093610201C08081FF91D2
:1013A000EF919F918F912F910F900FBE0F901F90F3
:1013B0001895CF93DF93EBEBF0E08491E7EAF0E050
:1013C000D491E3E9F0E0C491CC2391F081110E9423
:1013D0004B01EC2FF0E0EE0FFF1FE458FF4FA591FB
:1013E000B491EC91ED2381E090E021F480E002C023
:1013F00080E090E0DF91CF9108950F931F93CF93FA
:10140000DF938C01C0E0D0E0F80161918F01CE0143
:1014100007960E943A102196C430D105A9F784E0BE
:1014200090E0DF91CF911F910F910895CF92DF92BD
:10143000EF92FF920F931F93CF93DF936A017B018B
:10144000E8EFF1E0C0E0D0E044815581452B09F0A0
:1014500060C0FE0144E0EE0FFF1F4A95E1F7E8503F
:10146000FE4F118210829383828344E650E05583BD
:10147000448340917A0150917B0160917C0170918D
:101480007D014C0D5D1D6E1D7F1D4683578360875A
:10149000718737872687609178017091790124E6FA
:1014A00030E0AC0180E990E00E9443078091770131
:1014B000813071F405EA13E0C8010E9434038823E7
:1014C000A1F00F5E1F4F83E00A3F1807A9F727C05E
:1014D000823029F500E010E00F5E1F4FC8018B55E8
:1014E0009C4F0E943403811110C06091750170916E
:1014F0007601A601CE01DF91CF911F910F91FF9050
:10150000EF90DF90CF900C941F070434110521F762
:1015100006C021967096C530D10509F095CFDF91B0
:10152000CF911F910F91FF90EF90DF90CF90089592
:10153000CF93DF9300D000D0CDB7DEB7789484B5D9
:10154000826084BD84B5816084BD85B5826085BDBF
:1015500085B5816085BD80916E00816080936E004D
:10156000109281008091810082608093810080913F
:1015700081008160809381008091800081608093F0
:1015800080008091B10084608093B1008091B000B0
:1015900081608093B00080917A00846080937A00AB
:1015A00080917A00826080937A0080917A008160D5
:1015B00080937A0080917A00806880937A001092FC
:1015C000C10060E08EE00E94A40160E08DE00E9416
:1015D000A40161E08AE00E94A40161E08DE00E9424
:1015E000740180E090E00E943210898381E090E0F5
:1015F0000E9432108A8389819A81029711F00E9499
:101600003B080E94D909892BC9F067EE71E081E09F
:1016100090E00E94F90365E771E083E090E00E94AA
:10162000F90368E771E085E090E00E94F90301E7C3
:10163000E02E01E0F02E07E010E02BC068EE73E032
:1016400080E090E00E9456020E94D909892B11F493
:101650000E943B0800E010E061E08AE00E94740113
:1016600064EF71E080E090E00E94560260E08AE062
:101670000E9474010230110531F064EF71E080E0E6
:1016800090E00E9456020F5F1F4F0330110521F7B3
:10169000BCCFC8010E943210F70181937F010F5F18
:1016A0001F4F0B301105A9F780E00E943F02BC01DB
:1016B000990F880B990B611571058105910511F042
:1016C0000E942910E0915802F091590282E0808333
:1016D000E0915402F09155021082E0915602F0918F
:1016E00057028FE3808310926002E0915C02F091D8
:1016F0005D0286E08083E0915A02F0915B02808176
:1017000080618083E0915A02F0915B028081886061
:101710008083E0915A02F0915B028081806880832F
:10172000E0915A02F0915B0280818F7D808310925C
:10173000DA011092D9010E94D105809177018111BF
:1017400029C083EC90E090936E0180936D018091AD
:101750006900836080936900E89A80916B008062E1
:1017600080936B00D89A80916800816080936800B4
:10177000C12CD12CA8ECEA2EA2E4FA2E8824839462
:10178000912C44244A9413E0512E612C712C11E1C8
:1017900001E04FC00BEE10E0C80182509D4F7C016C
:1017A00046E950E068EC0E946703C7010E943403D9
:1017B000882319F00E946206F8CFA80160E0C701F3
:1017C0000E946703C7010E943403882319F00E9416
:1017D0006206F8CF0151110906391105E9F6B1CFBA
:1017E0000E9467070E94BA070E94620680917A01F0
:1017F00090917B01A0917C01B0917D014091E90124
:101800005091EA016091EB017091EC01841B950B02
:10181000A60BB70B84369105A105B105E8F08091C0
:10182000F6019091F701181619060CF453C20E94A4
:1018300093000E94900260937A0170937B018093E1
:101840007C0190937D010E94D1058091ED018A3049
:1018500038F20E940E04C4CF0E94D909892BF9F6F0
:1018600064E670E080E090E00E9456020E94D90990
:10187000892BA9F610927701F5EAAF2EF3E0BF2E7F
:10188000F501C386D486E586F6861286118660E069
:1018900070E0C5010E943F03F1E1AF0EB11C2BE0E7
:1018A000A21624E0B20661F76AEF70E080E090E0F3
:1018B0000E9456028091F6019091F701009719F06D
:1018C0000197D1F0ACCF1092F3011092F2019092F7
:1018D000F7018092F60180917A0190917B01A091AD
:1018E0007C01B0917D018093EE019093EF01A09374
:1018F000F001B093F10193CF8091F4019091F50143
:101900008130910509F470C06CF4892B09F087CF00
:101910006AEF70E080E090E00E94560282E08093DF
:10192000770108C08230910509F4E8C0039709F4F3
:101930007EC175CF8EE00E943F02BC01990F880BDB
:10194000990B0E94C71120E030E040E85FE30E945D
:10195000AB1026E636E646E050E40E947C1220E01A
:1019600030EC4FE754E40E941D112BE734E14EECBC
:101970005FE30E94AC1060937101709372018093D9
:1019800073019093740160917501709176014FEA33
:1019900050E08091F4019091F5010E949E050E9413
:1019A00062068091ED018A3010F00E940E040E94C0
:1019B00067070E94BA070E944B065C010E949002D2
:1019C00060937A0170937B0180937C0190937D01F9
:1019D000AB2809F0AFCF81E791E00E94FD0910929A
:1019E000F7011092F6015DC16AEF70E080E090E0CF
:1019F0000E945602A12CB12C8EE00E943F02A0E072
:101A0000B0E00197A109B109BC01CD01E2E0660F88
:101A1000771F881F991FEA95D1F7A30192010E94B1
:101A200048103093E8012093E701609175017091AF
:101A300076014FEA50E08091F4019091F5010E9407
:101A40009E05609175017091760147E550E08091A7
:101A5000E7019091E8010E949E058091E701909135
:101A6000E8018A159B0591F01A9DC0011B9D900D00
:101A700011248B559C4FFC01C386D486E586F686DF
:101A80001286118660E070E00E943F03A090E7019B
:101A9000B090E8010E9462068091ED018A3010F05A
:101AA0000E940E040E9467070E94BA070E944B061C
:101AB000892B09F0A1CF67EE71E081E090E00E94F0
:101AC000E203009377012091F2013091F301129F1C
:101AD000C001139F900D11248B559C4FFC01C386B0
:101AE000D486E586F6861286118660E070E00E9454
:101AF0003F032091E7013091E801D9C06AEF70E01F
:101B000080E090E00E945602A0907801B0907901A8
:101B10008EE00E943F02A816B90659F4B0927901EE
:101B2000A09278018091ED018A30C0F10E940E04EC
:101B300035C0A0E0B0E00197A109B109BC01CD0119
:101B400054E0660F771F881F991F5A95D1F7A3019C
:101B500092010E944810DA01C9010196A11DB11D30
:101B600090937901809378011C0122E831E0F9011A
:101B700080812E5F3F4F622D61702B833C830E94DA
:101B80007401C1012B813C8197FD01969595879544
:101B90001C01F1E02C383F0751F7C4CF0E946707C2
:101BA0000E94BA070E944B06892B09F0B1CF68E763
:101BB00071E085E090E00E94E2031092F70110923C
:101BC000F6010093770132E8A32E31E0B32EF50140
:101BD0008081F2E0AF0EB11C60E00E9474012CE83D
:101BE000A21621E0B20699F71ACE4AE350E061E06E
:101BF00070E0C9010E949E050E9462068091ED017D
:101C00008A3010F00E940E040E9467070E94BA07F3
:101C10000E944B065C010E94900260937A017093CF
:101C20007B0180937C0190937D01AB2851F18EE084
:101C30000E943F02A0E0B0E09C01AD0121503109BB
:101C400041095109AEEFB0E00E946710A301920173
:101C50000E944810CA01B9016F5F7F4F8F4F9F4F9D
:101C600070937601609375012091F4013091F50134
:101C7000613071058105910509F4B7CF4FEA50E055
:101C8000B8CF65E771E083E090E00E94E203109234
:101C9000F7011092F60180917501909176010297FB
:101CA00010F0009377012091F2013091F301129F1F
:101CB000C001139F900D11248B559C4FFC01C386CE
:101CC000D486E586F6861286118660E070E00E9472
:101CD0003F03A5CD8EE00E943F02092E000CAA0B07
:101CE000BB0B0197A109B109BC01CD0122E0660F30
:101CF000771F881F991F2A95D1F7A30192010E948F
:101D000048103093F5012093F4016091F201709135
:101D1000F3016217730751F1169FC001179F900DD1
:101D200011248B559C4FFC01C386D486E586F6862C
:101D30001286118660E070E00E943F038091F401FA
:101D40009091F5019093F3018093F20180917A01D3
:101D500090917B01A0917C01B0917D018093EE0177
:101D60009093EF01A093F001B093F1018091F601FF
:101D70009091F7018130910559F00297B9F41092D2
:101D8000770160917501709176014FEA50E008C0CB
:101D90001092770160917501709176014EE551E0E6
:101DA0008091F4019091F5010E949E0580917A0145
:101DB00090917B01A0917C01B0917D014091EE0159
:101DC0005091EF016091F0017091F101841B950B2E
:101DD000A60BB70B89389341A105B10508F427CDAF
:101DE0001092F7011092F6018091750190917601A1
:101DF000029710F0009377012091F2013091F301E6
:101E0000129FC001139F900D11248B559C4FFC0114
:101E1000C386D486E586F6861286118660E070E079
:101E20000E943F0304CDE8E4F2E01382128288EEC0
:101E300093E0A0E0B0E084839583A683B78383E931
:101E400091E09183808385EC90E09587848784EC92
:101E500090E09787868780EC90E0918B808B81EC77
:101E600090E0938B828B82EC90E0958B848B86EC58
:101E700090E0978B868B118E128E138E148EE5EA6E
:101E8000F3E083E08083178210861182128213822E
:101E90001482168215821286118613861486158680
:101EA0001686108A178685E0818B108E118E128A15
:101EB000138A148A158A178A168A138E128E148E24
:101EC000158E168E178E11A210A286E082A311A67F
:101ED00012A613A214A215A216A210A617A214A647
:101EE00013A615A616A617A610AA12AA11AA89E06B
:101EF00083AB12AE13AE14AA15AA16AA17AA11AE76
:101F000010AE15AE14AE1092E3031092E4031092DB
:101F1000E5031092E6031092E8031092E7038AE0CB
:101F20008093E9031092F0031092F1031092EA03F8
:101F30001092EB031092EC031092ED031092EF035A
:101F40001092EE031092F3031092F2031092F40336
:101F50001092F5031092F6031092F7031092F90312
:101F60001092F8038BE08093FA0310920104109210
:101F700002041092FB031092FC031092FD031092D6
:101F8000FE03109200041092FF03109204041092BA
:101F90000304109205041092060410920704109294
:101FA000080410920A041092090408958F929F92D7
:101FB000AF92BF92CF92DF92EF92FF92CF93DF93D7
:101FC000EC01688179818A819B81611571058105A8
:101FD000910521F464E279ED8BE597E02DE133EF93
:101FE00041E050E00E94481049015A019B01AC01B8
:101FF000A7EAB1E40E9467106B017C01ACEEB4EF7C
:10200000A50194010E947510DC01CB018C0D9D1D72
:10201000AE1DBF1DB7FF03C00197A109B04888835B
:102020009983AA83BB83BC01CD019F77DF91CF91B8
:10203000FF90EF90DF90CF90BF90AF909F908F90E8
:1020400008950E94D60F08958EE791E00E94D60F62
:10205000089560937E0170937F0180938001909337
:1020600081010895F999FECF92BD81BDF89A992713
:1020700080B50895262FF999FECF1FBA92BD81BD74
:1020800020BD0FB6F894FA9AF99A0FBE01960895FA
:10209000052E97FB1EF400940E945F1057FD07D099
:1020A0000E947A1007FC03D04EF40C945F105095F8
:1020B0004095309521953F4F4F4F5F4F0895909534
:1020C0008095709561957F4F8F4F9F4F08950E9427
:1020D0009C10A59F900DB49F900DA49F800D911D05
:1020E00011240895B7FF0C9467100E946710821B9B
:1020F000930B0895A1E21A2EAA1BBB1BFD010DC074
:10210000AA1FBB1FEE1FFF1FA217B307E407F507A7
:1021100020F0A21BB30BE40BF50B661F771F881F83
:10212000991F1A9469F760957095809590959B0119
:10213000AC01BD01CF010895A29FB001B39FC001C2
:10214000A39F700D811D1124911DB29F700D811DE3
:102150001124911D08955058BB27AA270E94C3102F
:102160000C943D120E942F1238F00E94361220F07B
:1021700039F49F3F19F426F40C942C120EF4E095D8
:10218000E7FB0C942612E92F0E944E1258F3BA175F
:10219000620773078407950720F079F4A6F50C947D
:1021A00070120EF4E0950B2EBA2FA02D0B01B90181
:1021B00090010C01CA01A0011124FF27591B99F0BD
:1021C000593F50F4503E68F11A16F040A22F232FC9
:1021D000342F4427585FF3CF469537952795A79519
:1021E000F0405395C9F77EF41F16BA0B620B730BC0
:1021F000840BBAF09150A1F0FF0FBB1F661F771F31
:10220000881FC2F70EC0BA0F621F731F841F48F4E5
:10221000879577956795B795F7959E3F08F0B0CF6E
:102220009395880F08F09927EE0F97958795089555
:102230000E94021208F481E008950E9431110C946A
:102240003D120E94361258F00E942F1240F029F4DD
:102250005F3F29F00C94261251110C9471120C94CA
:102260002C120E944E1268F39923B1F3552391F377
:10227000951B550BBB27AA2762177307840738F0F5
:102280009F5F5F4F220F331F441FAA1FA9F335D052
:102290000E2E3AF0E0E832D091505040E695001C06
:1022A000CAF72BD0FE2F29D0660F771F881FBB1FC0
:1022B000261737074807AB07B0E809F0BB0B802D9E
:1022C000BF01FF2793585F4F3AF09E3F510578F0CA
:1022D0000C9426120C9471125F3FE4F3983ED4F3F1
:1022E000869577956795B795F7959F5FC9F7880F9E
:1022F000911D9695879597F90895E1E0660F771FF0
:10230000881FBB1F621773078407BA0720F0621B80
:10231000730B840BBA0BEE1F88F7E09508950E94AB
:1023200096116894B1110C94711208950E9456127E
:1023300088F09F5798F0B92F9927B751B0F0E1F086
:10234000660F771F881F991F1AF0BA95C9F714C036
:10235000B13091F00E947012B1E008950C947012A7
:10236000672F782F8827B85F39F0B93FCCF386956F
:1023700077956795B395D9F73EF4909580957095CC
:1023800061957F4F8F4F9F4F0895E89409C097FB49
:102390003EF490958095709561957F4F8F4F9F4F3C
:1023A0009923A9F0F92F96E9BB279395F695879580
:1023B00077956795B795F111F8CFFAF4BB0F11F443
:1023C00060FF1BC06F5F7F4F8F4F9F4F16C08823EA
:1023D00011F096E911C0772321F09EE8872F762F20
:1023E00005C0662371F096E8862F70E060E02AF061
:1023F0009A95660F771F881FDAF7880F969587954D
:1024000097F90895990F0008550FAA0BE0E8FEEF21
:1024100016161706E807F907C0F012161306E407A8
:10242000F50798F0621B730B840B950B39F40A26A1
:1024300061F0232B242B252B21F408950A2609F47F
:10244000A140A6958FEF811D811D089597F99F6783
:1024500080E870E060E008959FEF80EC089500242C
:102460000A941616170618060906089500240A94F9
:1024700012161306140605060895092E0394000C7F
:1024800011F4882352F0BB0F40F4BF2B11F460FF0E
:1024900004C06F5F7F4F8F4F9F4F089557FD905837
:1024A000440F551F59F05F3F71F04795880F97FB18
:1024B000991F61F09F3F79F08795089512161306D2
:1024C0001406551FF2CF4695F1DF08C01616170601
:1024D0001806991FF1CF8695710561050894089536
:1024E000E894BB2766277727CB0197F908950E94C8
:1024F000021208F48FEF08950E948F120C943D127F
:102500000E942F1238F00E94361220F0952311F00D
:102510000C9426120C942C1211240C9471120E940B
:102520004E1270F3959FC1F3950F50E0551F629FB7
:10253000F001729FBB27F00DB11D639FAA27F00D1C
:10254000B11DAA1F649F6627B00DA11D661F829F43
:102550002227B00DA11D621F739FB00DA11D621F28
:10256000839FA00D611D221F749F3327A00D611D45
:10257000231F849F600D211D822F762F6A2F112427
:102580009F5750409AF0F1F088234AF0EE0FFF1F5A
:10259000BB1F661F771F881F91505040A9F79E3FB1
:1025A000510580F00C9426120C9471125F3FE4F3F5
:1025B000983ED4F3869577956795B795F795E79507
:1025C0009F5FC1F7FE2B880F911D9695879597F910
:1025D000089519F416F40C942C120C942F130E94E5
:1025E0005612B8F39923C9F3B6F39F57550B87FFDB
:1025F0000E943D130024A0E640EA900180585695C1
:10260000979528F4805C660F771F881F20F02617A7
:102610003707480730F4621B730B840B20293129DC
:102620004A2BA69517940794202531254A2758F759
:10263000660F771F881F20F026173707480730F4EA
:10264000620B730B840B200D311D411DA09581F78A
:10265000B901842F9158880F9695879508959F3FCB
:1026600031F0915020F4879577956795B795880F4D
:10267000911D9695879597F9089591505040660F52
:10268000771F881FD2F70895DB018F939F930E94D5
:102690006710BF91AF91A29F800D911DA39F900DD8
:1026A000B29F900D1124089597FB072E16F4009405
:1026B00007D077FD09D00E946F1307FC05D03EF4C8
:1026C000909581959F4F0895709561957F4F0895DE
:1026D0000E949C10B7FF0895821B930B0895AA1BBC
:1026E000BB1B51E107C0AA1FBB1FA617B70710F0FD
:1026F000A61BB70B881F991F5A95A9F7809590952F
:10270000BC01CD010895EE0FFF1F0590F491E02D5F
:10271000099481E090E0F8940C948E13F894FFCF24
:1027200001881300000C00010002000300040005F2
:102730000006000700080009000A000B000C000753
:1027400000010003000500060008000A000C00005C
:10275000000000000000000000070001000200026D
:10276000000500060009000B00000000000000004A
:102770000000000700010003000400060008000933
:10278000000B0000000000000000000000C200C2BA
:102790000033331340BE00010100010000000100BE
:1027A000000003000500060009000A000B000000FD
:1027B0000000001909AE08DD0860098C00EC08FF74
:0227C00008000F
:107800000C94343C0C94513C0C94513C0C94513CE1
:107810000C94513C0C94513C0C94513C0C94513CB4
:107820000C94513C0C94513C0C94513C0C94513CA4
:107830000C94513C0C94513C0C94513C0C94513C94
:107840000C94513C0C94513C0C94513C0C94513C84
:107850000C94513C0C94513C0C94513C0C94513C74
:107860000C94513C0C94513C11241FBECFEFD8E036
:10787000DEBFCDBF11E0A0E0B1E0ECE9FFE702C060
:1078800005900D92A230B107D9F712E0A2E0B1E065
:1078900001C01D92AD30B107E1F70E942D3D0C945F
:1078A000CC3F0C94003C982F959595959595959582
:1078B000905D8F708A307CF0282F295A8091C0000B
:1078C00085FFFCCF9093C6008091C00085FFFCCF60
:1078D0002093C6000895282F205DF0CF982F809127
:1078E000C00085FFFCCF9093C6000895EF92FF92F1
:1078F0000F931F93EE24FF2487018091C00087FD22
:1079000017C00894E11CF11C011D111D81E4E8164B
:1079100082E4F8068FE0080780E0180770F3E09132
:107920000401F091050109958091C00087FFE9CF1E
:107930008091C6001F910F91FF90EF9008950E94D3
:10794000763C982F8091C00085FFFCCF9093C600B5
:1079500091362CF490330CF09053892F089597555D
:10796000892F08951F930E949F3C182F0E949F3CCF
:107970001295107F810F1F9108951F93182F882350
:1079800021F00E94763C1150E1F71F9108951F935A
:10799000182F0E94763C803249F0809103018F5F5E
:1079A000809303018530C1F01F9108958091C0003C
:1079B00085FFFCCF84E18093C6008091C00085FFE5
:1079C000FCCF1093C6008091C00085FFFCCF80E102
:1079D0008093C6001F910895E0910401F091050184
:1079E00009951F9108950E94763C803241F0809164
:1079F00003018F5F80930301853081F008958091AA
:107A0000C00085FFFCCF84E18093C6008091C00058
:107A100085FFFCCF80E18093C6000895E0910401CA
:107A2000F09105010995089540E951E08823A1F0FE
:107A30002D9A28EE33E0FA013197F1F721503040CA
:107A4000D1F72D9828EE33E0FA013197F1F7215064
:107A50003040D1F7815061F708953F924F925F9285
:107A60006F927F928F929F92AF92BF92CF92DF924E
:107A7000EF92FF920F931F93CF93DF93000080E16B
:107A80008093C4001092C50088E18093C10086E015
:107A90008093C2005098589A259A81E00E94143D24
:107AA00024E1F22E9EE1E92E85E9D82E0FE0C02ECA
:107AB00010E1B12EAA24A394B1E49B2EA6E58A2E50
:107AC000F2E57F2EE0E26E2E79E4572E63E5462E36
:107AD00050E5352E0E94763C8033B1F18133B9F107
:107AE000803409F46FC0813409F476C0823409F41B
:107AF00085C0853409F488C0803531F1823521F1A3
:107B0000813511F1853509F485C0863509F48DC0BC
:107B1000843609F496C0843709F403C1853709F423
:107B200072C1863709F466C0809103018F5F80932C
:107B30000301853079F6E0910401F0910501099582
:107B40000E94763C803351F60E94F33CC3CF0E94E2
:107B5000763C803249F78091C00085FFFCCFF092DF
:107B6000C6008091C00085FFFCCF9092C600809136
:107B7000C00085FFFCCF8092C6008091C00085FFC9
:107B8000FCCF7092C6008091C00085FFFCCF609250
:107B9000C6008091C00085FFFCCF5092C600809146
:107BA000C00085FFFCCF4092C6008091C00085FFD9
:107BB000FCCF3092C6008091C00085FFFCCFB09210
:107BC000C60088CF0E94763C863808F4BDCF0E945C
:107BD000763C0E94F33C7ECF0E94763C803809F4CC
:107BE0009CC0813809F40BC1823809F43CC1883942
:107BF00009F48FC080E00E94C73C6CCF84E10E94F2
:107C0000BD3C0E94F33C66CF85E00E94BD3C0E94D3
:107C1000F33C60CF0E94763C809306010E94763C44
:107C2000809307010E94F33C55CF0E94763C80333D
:107C300009F41DC183E00E94BD3C80E00E94C73C66
:107C400049CF0E94763C809309020E94763C809343
:107C5000080280910C028E7F80930C020E94763C79
:107C6000853409F415C18091080290910902892B8D
:107C700089F000E010E00E94763CF801E85FFE4FDA
:107C800080830F5F1F4F80910802909109020817AF
:107C9000190788F30E94763C803209F045CF809125
:107CA0000C0280FF01C16091060170910701660F0F
:107CB000771F7093070160930601A0910802B091AD
:107CC00009021097C9F0E8E0F1E09B01AD014E0F09
:107CD0005F1FF999FECF32BD21BD819180BDFA9A17
:107CE000F99A2F5F3F4FE417F50799F76A0F7B1F4B
:107CF00070930701609306018091C00085FFFCCF5F
:107D0000F092C6008091C00085FFFCCFB092C60003
:107D1000E1CE83E00E94C73CDDCE82E00E94C73CFA
:107D2000D9CE0E94763C809309020E94763C8093D3
:107D300008028091060190910701880F991F909386
:107D40000701809306010E94763C853409F4A6C0A1
:107D500080910C028E7F80930C020E94763C8032D0
:107D600009F0B8CE8091C00085FFFCCFF092C6002C
:107D7000609108027091090261157105B9F140E046
:107D800050E080910C02A82FA170B82FB27011C0E2
:107D9000BB2309F45CC0E0910601F0910701319624
:107DA000F0930701E09306014F5F5F4F46175707B7
:107DB000E8F4AA2369F3F999FECF209106013091E6
:107DC000070132BD21BDF89A90B58091C00085FFB2
:107DD000FCCF9093C6002F5F3F4F30930701209355
:107DE00006014F5F5F4F4617570718F38091C00099
:107DF00085FDE5CE8091C00085FFF8CFE0CE81E023
:107E00000E94C73C67CE0E94763C803209F08CCE3F
:107E10008091C00085FFFCCFF092C6008091C00029
:107E200085FFFCCFE092C6008091C00085FFFCCFAB
:107E3000D092C6008091C00085FFFCCFC092C600E2
:107E40008091C00085FFFCCFB092C60043CEE09188
:107E50000601F091070194918091C00085FFFCCF4D
:107E60009093C6009CCF80E10E94C73C33CE0E9415
:107E7000763C0E94763C182F0E94763C112309F430
:107E800083C0113009F484C08FE00E94C73C22CE29
:107E900080910C02816080930C02E5CE80910C02EF
:107EA000816080930C0259CF809107018823880F4D
:107EB000880B8A2180930B02809106019091070123
:107EC000880F991F90930701809306018091080203
:107ED00080FF09C080910802909109020196909359
:107EE000090280930802F894F999FECF1127E091D6
:107EF0000601F0910701C8E0D1E08091080290915D
:107F00000902103091F40091570001700130D9F34B
:107F100003E000935700E89500915700017001308D
:107F2000D9F301E100935700E89509901990009169
:107F3000570001700130D9F301E000935700E89534
:107F40001395103498F011270091570001700130FB
:107F5000D9F305E000935700E895009157000170B0
:107F60000130D9F301E100935700E895329602976A
:107F700009F0C7CF103011F00296E5CF112480919F
:107F8000C00085FFB9CEBCCE8EE10E94C73CA2CD19
:0C7F900085E90E94C73C9ECDF894FFCF0D
:027F9C00800063
:040000030000780081
:00000001FF
